{
  "contractName": "MyBounty",
  "abi": [
    {
      "constant": true,
      "inputs": [],
      "name": "bountyCount",
      "outputs": [
        {
          "name": "",
          "type": "uint256"
        }
      ],
      "payable": false,
      "stateMutability": "view",
      "type": "function"
    },
    {
      "constant": true,
      "inputs": [
        {
          "name": "",
          "type": "uint256"
        }
      ],
      "name": "BountyList",
      "outputs": [
        {
          "name": "bountyPoster",
          "type": "address"
        },
        {
          "name": "title",
          "type": "string"
        },
        {
          "name": "description",
          "type": "string"
        },
        {
          "name": "amount",
          "type": "uint256"
        },
        {
          "name": "state",
          "type": "uint8"
        },
        {
          "name": "submissionCount",
          "type": "uint256"
        }
      ],
      "payable": false,
      "stateMutability": "view",
      "type": "function"
    },
    {
      "inputs": [],
      "payable": false,
      "stateMutability": "nonpayable",
      "type": "constructor"
    },
    {
      "payable": true,
      "stateMutability": "payable",
      "type": "fallback"
    },
    {
      "anonymous": false,
      "inputs": [
        {
          "indexed": false,
          "name": "bountyId",
          "type": "uint256"
        },
        {
          "indexed": false,
          "name": "bountyPoster",
          "type": "address"
        },
        {
          "indexed": false,
          "name": "title",
          "type": "string"
        },
        {
          "indexed": false,
          "name": "description",
          "type": "string"
        },
        {
          "indexed": false,
          "name": "amount",
          "type": "uint256"
        },
        {
          "indexed": false,
          "name": "state",
          "type": "uint8"
        },
        {
          "indexed": false,
          "name": "submissionCount",
          "type": "uint256"
        }
      ],
      "name": "CreateBounty",
      "type": "event"
    },
    {
      "anonymous": false,
      "inputs": [
        {
          "indexed": false,
          "name": "bountyId",
          "type": "uint256"
        },
        {
          "indexed": false,
          "name": "submissionId",
          "type": "uint256"
        },
        {
          "indexed": false,
          "name": "hunter",
          "type": "address"
        },
        {
          "indexed": false,
          "name": "body",
          "type": "string"
        },
        {
          "indexed": false,
          "name": "status",
          "type": "uint8"
        }
      ],
      "name": "CreateSubmission",
      "type": "event"
    },
    {
      "anonymous": false,
      "inputs": [
        {
          "indexed": false,
          "name": "bountyId",
          "type": "uint256"
        },
        {
          "indexed": false,
          "name": "submissionId",
          "type": "uint256"
        }
      ],
      "name": "AcceptSubmission",
      "type": "event"
    },
    {
      "anonymous": false,
      "inputs": [
        {
          "indexed": false,
          "name": "bountyId",
          "type": "uint256"
        },
        {
          "indexed": false,
          "name": "submissionId",
          "type": "uint256"
        }
      ],
      "name": "RejectSubmission",
      "type": "event"
    },
    {
      "anonymous": false,
      "inputs": [
        {
          "indexed": false,
          "name": "bountyId",
          "type": "uint256"
        }
      ],
      "name": "FetchBounty",
      "type": "event"
    },
    {
      "anonymous": false,
      "inputs": [
        {
          "indexed": false,
          "name": "bountyId",
          "type": "uint256"
        },
        {
          "indexed": false,
          "name": "submissionId",
          "type": "uint256"
        }
      ],
      "name": "FetchSubmission",
      "type": "event"
    },
    {
      "anonymous": false,
      "inputs": [
        {
          "indexed": false,
          "name": "isStopped",
          "type": "bool"
        }
      ],
      "name": "StopContract",
      "type": "event"
    },
    {
      "anonymous": false,
      "inputs": [
        {
          "indexed": false,
          "name": "isStopped",
          "type": "bool"
        }
      ],
      "name": "ResumeContract",
      "type": "event"
    },
    {
      "constant": false,
      "inputs": [
        {
          "name": "_title",
          "type": "string"
        },
        {
          "name": "_description",
          "type": "string"
        },
        {
          "name": "_bountyAmount",
          "type": "uint256"
        }
      ],
      "name": "createBounty",
      "outputs": [
        {
          "name": "",
          "type": "bool"
        }
      ],
      "payable": true,
      "stateMutability": "payable",
      "type": "function"
    },
    {
      "constant": false,
      "inputs": [
        {
          "name": "_bountyId",
          "type": "uint256"
        },
        {
          "name": "_body",
          "type": "string"
        }
      ],
      "name": "createSubmission",
      "outputs": [
        {
          "name": "",
          "type": "bool"
        }
      ],
      "payable": false,
      "stateMutability": "nonpayable",
      "type": "function"
    },
    {
      "constant": true,
      "inputs": [
        {
          "name": "_bountyId",
          "type": "uint256"
        }
      ],
      "name": "fetchBounty",
      "outputs": [
        {
          "name": "bountyPoster",
          "type": "address"
        },
        {
          "name": "title",
          "type": "string"
        },
        {
          "name": "description",
          "type": "string"
        },
        {
          "name": "amount",
          "type": "uint256"
        },
        {
          "name": "state",
          "type": "uint8"
        },
        {
          "name": "submissionCount",
          "type": "uint256"
        }
      ],
      "payable": false,
      "stateMutability": "view",
      "type": "function"
    },
    {
      "constant": true,
      "inputs": [
        {
          "name": "_bountyId",
          "type": "uint256"
        },
        {
          "name": "_submissionId",
          "type": "uint256"
        }
      ],
      "name": "fetchSubmission",
      "outputs": [
        {
          "name": "bountyId",
          "type": "uint256"
        },
        {
          "name": "submissionId",
          "type": "uint256"
        },
        {
          "name": "hunter",
          "type": "address"
        },
        {
          "name": "body",
          "type": "string"
        },
        {
          "name": "status",
          "type": "uint8"
        }
      ],
      "payable": false,
      "stateMutability": "view",
      "type": "function"
    },
    {
      "constant": false,
      "inputs": [
        {
          "name": "_bountyId",
          "type": "uint256"
        },
        {
          "name": "_submissionId",
          "type": "uint256"
        }
      ],
      "name": "acceptSubmission",
      "outputs": [
        {
          "name": "",
          "type": "bool"
        }
      ],
      "payable": true,
      "stateMutability": "payable",
      "type": "function"
    },
    {
      "constant": false,
      "inputs": [
        {
          "name": "_bountyId",
          "type": "uint256"
        },
        {
          "name": "_submissionId",
          "type": "uint256"
        }
      ],
      "name": "rejectSubmission",
      "outputs": [
        {
          "name": "",
          "type": "bool"
        }
      ],
      "payable": false,
      "stateMutability": "nonpayable",
      "type": "function"
    },
    {
      "constant": false,
      "inputs": [],
      "name": "stopContract",
      "outputs": [
        {
          "name": "",
          "type": "bool"
        }
      ],
      "payable": false,
      "stateMutability": "nonpayable",
      "type": "function"
    },
    {
      "constant": true,
      "inputs": [],
      "name": "checkStopContract",
      "outputs": [
        {
          "name": "",
          "type": "bool"
        }
      ],
      "payable": false,
      "stateMutability": "view",
      "type": "function"
    },
    {
      "constant": false,
      "inputs": [],
      "name": "resumeContract",
      "outputs": [
        {
          "name": "",
          "type": "bool"
        }
      ],
      "payable": false,
      "stateMutability": "nonpayable",
      "type": "function"
    }
  ],
  "bytecode": "0x608060405260008060146101000a81548160ff02191690831515021790555034801561002a57600080fd5b50336000806101000a81548173ffffffffffffffffffffffffffffffffffffffff021916908373ffffffffffffffffffffffffffffffffffffffff160217905550611b298061007a6000396000f3fe60806040526004361061009c5760003560e01c8063a5e99c4e11610064578063a5e99c4e146104f6578063a7423668146105e0578063b1804ffb14610756578063b8a770c4146107a6578063c4bc5da5146107d5578063d866164d146108045761009c565b806312253a6c1461009e578063172b14a4146100cd5780632bfa7d60146101e15780633e362c961461035557806377ca811714610380575b005b3480156100aa57600080fd5b506100b3610861565b604051808215151515815260200191505060405180910390f35b3480156100d957600080fd5b50610110600480360360408110156100f057600080fd5b810190808035906020019092919080359060200190929190505050610936565b604051808681526020018581526020018473ffffffffffffffffffffffffffffffffffffffff1673ffffffffffffffffffffffffffffffffffffffff1681526020018060200183600281111561016257fe5b60ff168152602001828103825284818151815260200191508051906020019080838360005b838110156101a2578082015181840152602081019050610187565b50505050905090810190601f1680156101cf5780820380516001836020036101000a031916815260200191505b50965050505050505060405180910390f35b61033b600480360360608110156101f757600080fd5b810190808035906020019064010000000081111561021457600080fd5b82018360208201111561022657600080fd5b8035906020019184600183028401116401000000008311171561024857600080fd5b91908080601f016020809104026020016040519081016040528093929190818152602001838380828437600081840152601f19601f820116905080830192505050505050509192919290803590602001906401000000008111156102ab57600080fd5b8201836020820111156102bd57600080fd5b803590602001918460018302840111640100000000831117156102df57600080fd5b91908080601f016020809104026020016040519081016040528093929190818152602001838380828437600081840152601f19601f82011690508083019250505050505050919291929080359060200190929190505050610af3565b604051808215151515815260200191505060405180910390f35b34801561036157600080fd5b5061036a610dcb565b6040518082815260200191505060405180910390f35b34801561038c57600080fd5b506103b9600480360360208110156103a357600080fd5b8101908080359060200190929190505050610dd1565b604051808773ffffffffffffffffffffffffffffffffffffffff1673ffffffffffffffffffffffffffffffffffffffff168152602001806020018060200186815260200185600181111561040957fe5b60ff168152602001848152602001838103835288818151815260200191508051906020019080838360005b8381101561044f578082015181840152602081019050610434565b50505050905090810190601f16801561047c5780820380516001836020036101000a031916815260200191505b50838103825287818151815260200191508051906020019080838360005b838110156104b557808201518184015260208101905061049a565b50505050905090810190601f1680156104e25780820380516001836020036101000a031916815260200191505b509850505050505050505060405180910390f35b34801561050257600080fd5b506105c66004803603604081101561051957600080fd5b81019080803590602001909291908035906020019064010000000081111561054057600080fd5b82018360208201111561055257600080fd5b8035906020019184600183028401116401000000008311171561057457600080fd5b91908080601f016020809104026020016040519081016040528093929190818152602001838380828437600081840152601f19601f820116905080830192505050505050509192919290505050611008565b604051808215151515815260200191505060405180910390f35b3480156105ec57600080fd5b506106196004803603602081101561060357600080fd5b81019080803590602001909291905050506112f6565b604051808773ffffffffffffffffffffffffffffffffffffffff1673ffffffffffffffffffffffffffffffffffffffff168152602001806020018060200186815260200185600181111561066957fe5b60ff168152602001848152602001838103835288818151815260200191508051906020019080838360005b838110156106af578082015181840152602081019050610694565b50505050905090810190601f1680156106dc5780820380516001836020036101000a031916815260200191505b50838103825287818151815260200191508051906020019080838360005b838110156107155780820151818401526020810190506106fa565b50505050905090810190601f1680156107425780820380516001836020036101000a031916815260200191505b509850505050505050505060405180910390f35b61078c6004803603604081101561076c57600080fd5b81019080803590602001909291908035906020019092919050505061148f565b604051808215151515815260200191505060405180910390f35b3480156107b257600080fd5b506107bb611712565b604051808215151515815260200191505060405180910390f35b3480156107e157600080fd5b506107ea611782565b604051808215151515815260200191505060405180910390f35b34801561081057600080fd5b506108476004803603604081101561082757600080fd5b810190808035906020019092919080359060200190929190505050611856565b604051808215151515815260200191505060405180910390f35b60008060009054906101000a900473ffffffffffffffffffffffffffffffffffffffff1673ffffffffffffffffffffffffffffffffffffffff163373ffffffffffffffffffffffffffffffffffffffff16146108bc57600080fd5b6001600060146101000a81548160ff0219169083151502179055507f35f675a4c6bf32e0d740299b1a4f0557e90818c42dc71105230bdb6d033528df600060149054906101000a900460ff16604051808215151515815260200191505060405180910390a1600060149054906101000a900460ff16905090565b6000806000606060008660015481111561094f57600080fd5b8787600260008381526020019081526020016000206005015482111561097457600080fd5b600060149054906101000a900460ff161561098e57600080fd5b8989600260008d815260200190815260200160002060060160008c815260200190815260200160002060000160009054906101000a900473ffffffffffffffffffffffffffffffffffffffff16600260008e815260200190815260200160002060060160008d8152602001908152602001600020600101600260008f815260200190815260200160002060060160008e815260200190815260200160002060020160009054906101000a900460ff16829250818054600181600116156101000203166002900480601f016020809104026020016040519081016040528092919081815260200182805460018160011615610100020316600290048015610ad55780601f10610aaa57610100808354040283529160200191610ad5565b820191906000526020600020905b815481529060010190602001808311610ab857829003601f168201915b50505050509150975097509750975097505050509295509295909350565b60008060149054906101000a900460ff1615610b0e57600080fd5b600160008154809291906001019190505550610b286119bf565b6040518060c001604052803373ffffffffffffffffffffffffffffffffffffffff16815260200186815260200185815260200184815260200160006001811115610b6e57fe5b8152602001600081525090508060026000600154815260200190815260200160002060008201518160000160006101000a81548173ffffffffffffffffffffffffffffffffffffffff021916908373ffffffffffffffffffffffffffffffffffffffff1602179055506020820151816001019080519060200190610bf3929190611a16565b506040820151816002019080519060200190610c10929190611a16565b506060820151816003015560808201518160040160006101000a81548160ff02191690836001811115610c3f57fe5b021790555060a082015181600501559050507f9417a56f1a7c2b5316ba15b488545cc26266647390dc387151545bcfed45aa1c60015433878787600080604051808881526020018773ffffffffffffffffffffffffffffffffffffffff1673ffffffffffffffffffffffffffffffffffffffff1681526020018060200180602001868152602001856001811115610cd257fe5b60ff168152602001848152602001838103835288818151815260200191508051906020019080838360005b83811015610d18578082015181840152602081019050610cfd565b50505050905090810190601f168015610d455780820380516001836020036101000a031916815260200191505b50838103825287818151815260200191508051906020019080838360005b83811015610d7e578082015181840152602081019050610d63565b50505050905090810190601f168015610dab5780820380516001836020036101000a031916815260200191505b50995050505050505050505060405180910390a160019150509392505050565b60015481565b6000606080600080600086600154811115610deb57600080fd5b600060149054906101000a900460ff1615610e0557600080fd5b6002600089815260200190815260200160002060000160009054906101000a900473ffffffffffffffffffffffffffffffffffffffff16600260008a8152602001908152602001600020600101600260008b8152602001908152602001600020600201600260008c815260200190815260200160002060030154600260008d815260200190815260200160002060040160009054906101000a900460ff16600260008e815260200190815260200160002060050154848054600181600116156101000203166002900480601f016020809104026020016040519081016040528092919081815260200182805460018160011615610100020316600290048015610f4f5780601f10610f2457610100808354040283529160200191610f4f565b820191906000526020600020905b815481529060010190602001808311610f3257829003601f168201915b50505050509450838054600181600116156101000203166002900480601f016020809104026020016040519081016040528092919081815260200182805460018160011615610100020316600290048015610feb5780601f10610fc057610100808354040283529160200191610feb565b820191906000526020600020905b815481529060010190602001808311610fce57829003601f168201915b505050505093509650965096509650965096505091939550919395565b60008260015481111561101a57600080fd5b600060149054906101000a900460ff161561103457600080fd5b6002600085815260200190815260200160002060000160009054906101000a900473ffffffffffffffffffffffffffffffffffffffff1673ffffffffffffffffffffffffffffffffffffffff163373ffffffffffffffffffffffffffffffffffffffff1614156110a357600080fd5b60026000858152602001908152602001600020600501600081548092919060010191905055506110d1611a96565b60405180606001604052803373ffffffffffffffffffffffffffffffffffffffff16815260200185815260200160028081111561110a57fe5b8152509050806002600087815260200190815260200160002060060160006002600089815260200190815260200160002060050154815260200190815260200160002060008201518160000160006101000a81548173ffffffffffffffffffffffffffffffffffffffff021916908373ffffffffffffffffffffffffffffffffffffffff16021790555060208201518160010190805190602001906111b0929190611a16565b5060408201518160020160006101000a81548160ff021916908360028111156111d557fe5b02179055509050507fd01e6e2c18060d3a9fb9c2975efe5fcd4b4c5f49f385aed74cd3b81be5ae09b185600260008881526020019081526020016000206005015433876002604051808681526020018581526020018473ffffffffffffffffffffffffffffffffffffffff1673ffffffffffffffffffffffffffffffffffffffff1681526020018060200183600281111561126c57fe5b60ff168152602001828103825284818151815260200191508051906020019080838360005b838110156112ac578082015181840152602081019050611291565b50505050905090810190601f1680156112d95780820380516001836020036101000a031916815260200191505b50965050505050505060405180910390a160019250505092915050565b60026020528060005260406000206000915090508060000160009054906101000a900473ffffffffffffffffffffffffffffffffffffffff1690806001018054600181600116156101000203166002900480601f0160208091040260200160405190810160405280929190818152602001828054600181600116156101000203166002900480156113c85780601f1061139d576101008083540402835291602001916113c8565b820191906000526020600020905b8154815290600101906020018083116113ab57829003601f168201915b505050505090806002018054600181600116156101000203166002900480601f0160208091040260200160405190810160405280929190818152602001828054600181600116156101000203166002900480156114665780601f1061143b57610100808354040283529160200191611466565b820191906000526020600020905b81548152906001019060200180831161144957829003601f168201915b5050505050908060030154908060040160009054906101000a900460ff16908060050154905086565b6000826000600181111561149f57fe5b6002600083815260200190815260200160002060040160009054906101000a900460ff1660018111156114ce57fe5b146114d857600080fd5b8360026000828152602001908152602001600020600301543373ffffffffffffffffffffffffffffffffffffffff16311161151257600080fd5b846002600082815260200190815260200160002060000160009054906101000a900473ffffffffffffffffffffffffffffffffffffffff1673ffffffffffffffffffffffffffffffffffffffff163373ffffffffffffffffffffffffffffffffffffffff161461158157600080fd5b600060149054906101000a900460ff161561159b57600080fd5b600060026000888152602001908152602001600020600601600087815260200190815260200160002060020160006101000a81548160ff021916908360028111156115e257fe5b021790555060016002600088815260200190815260200160002060040160006101000a81548160ff0219169083600181111561161a57fe5b021790555060026000878152602001908152602001600020600601600086815260200190815260200160002060000160009054906101000a900473ffffffffffffffffffffffffffffffffffffffff1673ffffffffffffffffffffffffffffffffffffffff166108fc60026000898152602001908152602001600020600301549081150290604051600060405180830381858888f193505050501580156116c5573d6000803e3d6000fd5b507fb50a2fef1593d2f881feee288ebce03096bc1cb73e4921deef17e1939cce307f8686604051808381526020018281526020019250505060405180910390a16001935050505092915050565b60008060009054906101000a900473ffffffffffffffffffffffffffffffffffffffff1673ffffffffffffffffffffffffffffffffffffffff163373ffffffffffffffffffffffffffffffffffffffff161461176d57600080fd5b600060149054906101000a900460ff16905090565b60008060009054906101000a900473ffffffffffffffffffffffffffffffffffffffff1673ffffffffffffffffffffffffffffffffffffffff163373ffffffffffffffffffffffffffffffffffffffff16146117dd57600080fd5b60008060146101000a81548160ff0219169083151502179055507fe885f3cd446f5fcfb4b346db7dcd82e9a74bf1fee69dd8bdf9b232fb666f81df600060149054906101000a900460ff16604051808215151515815260200191505060405180910390a1600060149054906101000a900460ff16905090565b6000826002600082815260200190815260200160002060000160009054906101000a900473ffffffffffffffffffffffffffffffffffffffff1673ffffffffffffffffffffffffffffffffffffffff163373ffffffffffffffffffffffffffffffffffffffff16146118c757600080fd5b83600060018111156118d557fe5b6002600083815260200190815260200160002060040160009054906101000a900460ff16600181111561190457fe5b1461190e57600080fd5b600060149054906101000a900460ff161561192857600080fd5b600160026000878152602001908152602001600020600601600086815260200190815260200160002060020160006101000a81548160ff0219169083600281111561196f57fe5b02179055507f0bc2798f955e2a605cb8e256ef2eab76cff9ff6a8b6676733f7bc55562c848558585604051808381526020018281526020019250505060405180910390a160019250505092915050565b6040518060c00160405280600073ffffffffffffffffffffffffffffffffffffffff16815260200160608152602001606081526020016000815260200160006001811115611a0957fe5b8152602001600081525090565b828054600181600116156101000203166002900490600052602060002090601f016020900481019282601f10611a5757805160ff1916838001178555611a85565b82800160010185558215611a85579182015b82811115611a84578251825591602001919060010190611a69565b5b509050611a929190611ad8565b5090565b6040518060600160405280600073ffffffffffffffffffffffffffffffffffffffff1681526020016060815260200160006002811115611ad257fe5b81525090565b611afa91905b80821115611af6576000816000905550600101611ade565b5090565b9056fea165627a7a72305820b1bb301b2f2202dd3af67609ce52d50909ba1c4a9f9b525c4ed34398a9f07e190029",
  "source": "pragma solidity ^0.5;\nimport './SafeMath.sol';\n\n/** @title MyBounty dApp */\ncontract MyBounty {                                             // Declaration of MyBounty contract\n\n    constructor() public {\n        owner = msg.sender;                                     // Sets the owner of contract on initial deployment\n    }\n\n    using SafeMath for uint256;                                 // SafeMath library prevents overflow when working with uint                     \n    address owner;                                              // Specifies the owner address of the contract\n    bool isStopped = false;                                     // Determins contracts emergency stopped state (circuit breaker)\n    uint public bountyCount;                                    // Acs as index/key of struct mappings\n    enum SubmissionStatus {Accepted, Rejected, PendingReview}   // Current status of a HunterSubmission.\n    enum BountyState {Open, Closed}                             // Current state of a BountyItem.\n\n    struct HunterSubmission {                                   // Declaration of HunterSubmission struct type\n        address payable hunter;                                         // Address of a Bounty Hunter.\n        string body;                                            // Solution body of text.\n        SubmissionStatus status;                                // Current status of a HunterSubmission.\n    }\n\n    struct BountyItem {                                         // Declaration of BountyList struct type\n        address bountyPoster;                                   // Address of a Bounty Poster.\n        string title;                                           // Title of a BountyItem.\n        string description;                                     // Description of a BountyItem.\n        uint amount;                                            // Reward Amount for submitting an accepted HunterSubmission. \n        BountyState state;                                      // Current state of a BountyItem.\n        uint submissionCount;                                   // Acts as index/key for A BountyItem.\n        mapping (uint => HunterSubmission) submissions;         // Struct mapping which contains each HunterSubmission \n    }                                                           //      for a particular Bountyitem.\n\n    mapping(uint => BountyItem) public BountyList;              // Declaration of BountyList storage. \n\n    event CreateBounty (\n        uint bountyId, \n        address bountyPoster, \n        string title, \n        string description, \n        uint amount, \n        BountyState state, \n        uint submissionCount\n    );\n\n    event CreateSubmission (\n        uint bountyId, \n        uint submissionId, \n        address hunter, \n        string body, \n        SubmissionStatus status\n    );\n\n    event AcceptSubmission (uint bountyId, uint submissionId);\n    event RejectSubmission (uint bountyId, uint submissionId);\n    event FetchBounty (uint bountyId);\n    event FetchSubmission (uint bountyId, uint submissionId);\n    event StopContract (bool isStopped);\n    event ResumeContract (bool isStopped);\n    \n    modifier verifyBountyOwner (uint _bountyId) { \n        require (msg.sender == BountyList[_bountyId].bountyPoster); _; \n    }\n    \n    modifier verifyState (uint _bountyId) { \n        require (BountyList[_bountyId].state == BountyState.Open); _; \n    }\n\n    modifier verifyBalance (uint _bountyId) { \n        require (msg.sender.balance > BountyList[_bountyId].amount); _; \n    }\n\n    modifier verifyBountyExists (uint _bountyId) { \n        require (_bountyId <= bountyCount); _; \n    }\n\n    modifier verifySubmissionExists (uint _bountyId, uint submissionId) { \n        require(_bountyId <= BountyList[_bountyId].submissionCount); _; \n    }\n    \n    modifier stoppedInEmergency {\n        require(!isStopped); _;\n    }\n\n    // Check for authorization. msg.sender must be owner\n    modifier onlyAuthorized {\n        require (msg.sender == owner); _;\n    }\n\n    /** @dev                        Creates a new BountyItem to which users can submit HunterSubmission solutions.\n    *   @param _title               Title of a new BountyItem.\n    *   @param _description         Description of a new BountyItem.\n    *   @param _bountyAmount        Bounty award amount for a new BountyItem.\n    *   @return boolean             Returns true if function is executes successfully.\n    */\n    function createBounty(string memory _title, string memory _description, uint _bountyAmount) public payable stoppedInEmergency() returns (bool) {\n        bountyCount++;\n        BountyItem memory newBountyItem = BountyItem(msg.sender, _title, _description, _bountyAmount, BountyState.Open, 0);\n        BountyList[bountyCount] = newBountyItem;\n        emit CreateBounty(bountyCount, msg.sender, _title, _description, _bountyAmount, BountyState.Open, 0);\n        return true;\n    }\n    \n    /** @dev                        Creates and submits a HunterSubmission for a BountyItem to be reviewed by the Bounty Poster.\n    *   @param _bountyId            ID/mapping key for a BountyItem.\n    *   @param _body                HunterSubmission solution body of text.\n    *   @return boolean             Returns true if function is executes successfully.\n    */\n    function createSubmission(uint _bountyId, string memory _body) public \n        verifyBountyExists(_bountyId) \n        stoppedInEmergency()\n        returns (bool)\n    {\n        require (msg.sender != BountyList[_bountyId].bountyPoster); // Prevent Bounty Posters from submitting their own HunterSubmissions\n        BountyList[_bountyId].submissionCount++;\n        HunterSubmission memory newSubmission = HunterSubmission(msg.sender, _body, SubmissionStatus.PendingReview);\n        BountyList[_bountyId].submissions[BountyList[_bountyId].submissionCount] = newSubmission;\n        emit CreateSubmission(\n            _bountyId, \n            BountyList[_bountyId].submissionCount, \n            msg.sender, \n            _body, \n            SubmissionStatus.PendingReview\n        );\n        return true;\n    }\n\n    /** @dev                        Fetches the details of a BountyItem.\n    *   @return bountyPoster        Address of the BountyItem poster.\n    *   @return title               Title of the BountyItem.\n    *   @return description         Description of the BountyItem.\n    *   @return amount              Bounty award amount of the BountyItem.\n    *   @return state               Current state (BountyState type) of the BountyItem.\n    *   @return submissionCount     Number of HunterSubmissions for the BountyItem.\n    */\n    function fetchBounty(uint _bountyId) public view \n        verifyBountyExists(_bountyId) \n        stoppedInEmergency()\n        returns(\n            address bountyPoster, \n            string memory title, \n            string memory description, \n            uint amount, \n            BountyState state, \n            uint submissionCount\n        ) \n    {\n        return (\n            BountyList[_bountyId].bountyPoster,\n            BountyList[_bountyId].title,\n            BountyList[_bountyId].description,\n            BountyList[_bountyId].amount,\n            BountyList[_bountyId].state,\n            BountyList[_bountyId].submissionCount\n        );\n    }\n\n    /** @dev                        Fetches the details for a HunterSubmission solution of a BountyItem.\n    *   @param  _bountyId           ID/mapping key for a BountyItem.\n    *   @param  _submissionId       ID/mapping key for a HunterSubmission.\n    *   @return bountyId            Returns ID/mapping key of the BountyItem.\n    *   @return submissionId        Returns ID/mapping key of the HunterSubmission.\n    *   @return hunter              Returns hunter address of the HunterSubmission.\n    *   @return body                Returns body of text for the HunterSubmission.\n    *   @return status              Returns current status (SubmissionStatus type) of the HunterSubmission.\n    */\n    function fetchSubmission(uint _bountyId, uint _submissionId) public view \n        verifyBountyExists(_bountyId)\n        verifySubmissionExists(_bountyId, _submissionId) \n        stoppedInEmergency()\n        returns(\n            uint bountyId, \n            uint submissionId, \n            address hunter, \n            string memory body, \n            SubmissionStatus status\n        ) \n    {\n        return ( \n            _bountyId,\n            _submissionId,\n            BountyList[_bountyId].submissions[_submissionId].hunter, \n            BountyList[_bountyId].submissions[_submissionId].body, \n            BountyList[_bountyId].submissions[_submissionId].status\n        );   \n    }\n    \n    /** @dev                        Accepts a HunterSubmission and sets the BountyItem state to Closed.\n    *   @param _bountyId            ID/mapping key for a BountyItem.\n    *   @param _submissionId        ID/mapping key for a HunterSubmission.\n    */\n    function acceptSubmission(uint _bountyId, uint _submissionId) public payable \n        verifyState(_bountyId)      // Do no allow setting state on closed/paid bounties.\n        verifyBalance(_bountyId)    // Ensure the bounty owner has enough funds to pay the bounty amount.\n        verifyBountyOwner(_bountyId)// Ensure the bounty owner is only one that can call this function.\n        stoppedInEmergency()\n        returns (bool)\n    { \n        BountyList[_bountyId].submissions[_submissionId].status = SubmissionStatus.Accepted;\n        BountyList[_bountyId].state = BountyState.Closed;\n        BountyList[_bountyId].submissions[_submissionId].hunter.transfer(BountyList[_bountyId].amount);\n        emit AcceptSubmission(_bountyId, _submissionId);\n        return true;\n    }\n    \n    /** @dev                        Rejects a HunterSubmission.\n    *   @param _bountyId            ID/mapping key for a BountyItem.\n    *   @param _submissionId        ID/mapping key for a HunterSubmission.\n    *   @return boolean             Returns true if function is executes successfully.\n    */\n    function rejectSubmission(uint _bountyId, uint _submissionId) public \n        verifyBountyOwner(_bountyId) \n        verifyState(_bountyId) \n        stoppedInEmergency()\n        returns (bool)\n    {\n        BountyList[_bountyId].submissions[_submissionId].status = SubmissionStatus.Rejected;\n        emit RejectSubmission(_bountyId, _submissionId);\n        return true;\n    }\n\n    /** @dev                        Enables contract emergency stop / circuit breaker. Only callable by contract owner. \n    *   @return isStopped           Returns boolean value of isStopped if stopContract executes successfully.\n    */\n    function stopContract() public onlyAuthorized() returns (bool) {\n        isStopped = true;\n        emit StopContract(isStopped);\n        return isStopped;\n    }\n\n    /** @dev                        Enables contract emergency stop / circuit breaker. Only callable by contract owner. \n    *   @return isStopped           Returns boolean value of isStopped when contract owner providing the ownner status.\n    */\n    function checkStopContract() public onlyAuthorized() view returns (bool) {\n        return isStopped;\n    }\n\n    /** @dev                        Disables contract emergency stop / circuit breaker. Only callable by contract owner.\n    *   @return isStopped           Returns boolean value of isStopped if resumeContract executes successfully.\n    */\n    function resumeContract() public onlyAuthorized() returns (bool) {\n        isStopped = false;\n        emit ResumeContract(isStopped);\n        return isStopped;\n    }\n\n    /// @dev                        Fallback function, which accepts ether when sent to contract.\n    function() external payable {}\n    \n}\n",
  "sourcePath": "/Users/taosha/project/consensys/final/contracts/MyBounty.sol",
  "compiler": {
    "name": "solc",
    "version": "0.5.8+commit.23d335f2.Emscripten.clang"
  },
  "schemaVersion": "3.0.11",
  "updatedAt": "2019-08-01T10:54:12.833Z",
  "devdoc": {
    "methods": {
      "acceptSubmission(uint256,uint256)": {
        "details": "Accepts a HunterSubmission and sets the BountyItem state to Closed.",
        "params": {
          "_bountyId": "ID/mapping key for a BountyItem.",
          "_submissionId": "ID/mapping key for a HunterSubmission."
        }
      },
      "checkStopContract()": {
        "details": "Enables contract emergency stop / circuit breaker. Only callable by contract owner. ",
        "return": "isStopped           Returns boolean value of isStopped when contract owner providing the ownner status."
      },
      "createBounty(string,string,uint256)": {
        "details": "Creates a new BountyItem to which users can submit HunterSubmission solutions.",
        "params": {
          "_bountyAmount": "Bounty award amount for a new BountyItem.",
          "_description": "Description of a new BountyItem.",
          "_title": "Title of a new BountyItem."
        },
        "return": "boolean             Returns true if function is executes successfully."
      },
      "createSubmission(uint256,string)": {
        "details": "Creates and submits a HunterSubmission for a BountyItem to be reviewed by the Bounty Poster.",
        "params": {
          "_body": "HunterSubmission solution body of text.",
          "_bountyId": "ID/mapping key for a BountyItem."
        },
        "return": "boolean             Returns true if function is executes successfully."
      },
      "fetchBounty(uint256)": {
        "details": "Fetches the details of a BountyItem.",
        "return": "bountyPoster        Address of the BountyItem poster.title               Title of the BountyItem.description         Description of the BountyItem.amount              Bounty award amount of the BountyItem.state               Current state (BountyState type) of the BountyItem.submissionCount     Number of HunterSubmissions for the BountyItem."
      },
      "fetchSubmission(uint256,uint256)": {
        "details": "Fetches the details for a HunterSubmission solution of a BountyItem.",
        "params": {
          "_bountyId": "ID/mapping key for a BountyItem.",
          "_submissionId": "ID/mapping key for a HunterSubmission."
        },
        "return": "bountyId            Returns ID/mapping key of the BountyItem.submissionId        Returns ID/mapping key of the HunterSubmission.hunter              Returns hunter address of the HunterSubmission.body                Returns body of text for the HunterSubmission.status              Returns current status (SubmissionStatus type) of the HunterSubmission."
      },
      "rejectSubmission(uint256,uint256)": {
        "details": "Rejects a HunterSubmission.",
        "params": {
          "_bountyId": "ID/mapping key for a BountyItem.",
          "_submissionId": "ID/mapping key for a HunterSubmission."
        },
        "return": "boolean             Returns true if function is executes successfully."
      },
      "resumeContract()": {
        "details": "Disables contract emergency stop / circuit breaker. Only callable by contract owner.",
        "return": "isStopped           Returns boolean value of isStopped if resumeContract executes successfully."
      },
      "stopContract()": {
        "details": "Enables contract emergency stop / circuit breaker. Only callable by contract owner. ",
        "return": "isStopped           Returns boolean value of isStopped if stopContract executes successfully."
      }
    },
    "title": "MyBounty dApp "
  },
  "userdoc": {
    "methods": {}
  }
}